S01300004341525F534C4156455F322E73726563D0
S11300000C942A000C9447000C9447000C9447006D
S11300100C9447000C9447000C94FC030C94AA0322
S11300200C94D3030C9481030C9447000C94250482
S11300300C9447000C9447000C9447000C94470020
S11300400C9447000C9447000C9447000C94470010
S11300500C94470011241FBECFE5D8E0DEBFCDBF0E
S113006010E0A0E6B0E0E4E9F9E002C005900D92EA
S1130070A238B107D9F720E0A2E8B0E001C01D9290
S1130080A239B207E1F70E9491000C94C8040C94C1
S11300900000853B08F084EB282F30E0A8EEB3E0A5
S11300A00E94B90424EB30E040E050E00E94970441
S11300B029513C4F39BD28BD0895CF93862FC42FB5
S11300C0611116C061E0842F0E94330284EB0E9408
S11300D049002FE788E391E0215080409040E1F708
S11300E000C0000060E08C2F0E94330284EB17C034
S11300F0643BA9F461E0842F0E94330280E00E94F3
S113010049002FE788E391E0215080409040E1F7D7
S113011000C0000060E08C2F0E94330280E0CF9189
S113012008950E9455010E94E70262E084E00E9463
S11301302A0366E081E00E94380180E00E944D01BC
S11301400E946B048FE19EE49BBD8ABD82E00E9405
S1130150660387EE93E099BD88BD789410E0D0E003
S113016080E00E94EA02C82F882309F443C081E09A
S11301700E94B202C13639F440E16D2F80E00E9442
S11301805D00D82FEDCFC33739F441E1612F81E011
S11301900E945D00182FE4CFC13711F461E014C050
S11301A0C73779F460E083E10E94330260E084E1C0
S11301B00E94330260E085E10E94330280E090E017
S11301C054C0C23731F460E083E10E94330261E03D
S11301D007C0CC3679F461E083E10E94330260E029
S11301E084E10E94330261E085E10E94330284E6E7
S11301F090E03BC08FEC8C0F893008F0B1CF61E008
S113020083E10E94330261E084E10E94330261E0F1
S113021085E10E943302C13319F48AE090E025C0DD
S1130220C23319F484E190E020C0C33319F48EE1A1
S113023090E01BC0C43319F488E290E016C0C533C3
S113024019F482E390E011C0C63319F48CE390E012
S11302500CC0C73319F486E490E007C0C83319F41E
S113026080E590E002C08AE590E00E94720478CFB5
S1130270813041F028F0823039F43E9A3F9A04C02C
S11302803E9801C03E9A3F9886B1887F86B986B170
S11302906770682B66B9379A089597B1907E97B9BD
S11302A097B18F71982B97B90895E1E6F0E040E09B
S11302B081E090E05191242F2770342F36953695A4
S11302C03695513009F443C020F0523009F482C00D
S11302D0C5C0323001F1333061F1313071F05AB3BD
S11302E0BC0102C0660F771F2A95E2F79B01352FE8
S11302F0322B3ABB3BB320953DC057B3BC0102C07F
S1130300660F771F2A95E2F79B01352F322B37BBF7
S113031038B320953EC054B3BC0102C0660F771FAA
S11303202A95E2F79B01352F322B34BB35B3209548
S11303303FC051B3BC0102C0660F771F2A95E2F794
S11303409B01352F322B31BB32B3209541C0323063
S113035011F1333081F1313079F05AB3BC0102C06C
S1130360660F771F2A95E2F79B012095352F3223DC
S11303703ABB3BB3232342C057B3BC0102C0660F50
S1130380771F2A95E2F79B012095352F322337BB3F
S113039038B3232343C054B3BC0102C0660F771F94
S11303A02A95E2F79B012095352F322334BB35B3D0
S11303B0232325BB53C051B3BC0102C0660F771F72
S11303C02A95E2F79B012095352F322331BB32B3B6
S11303D0232343C0323021F1333089F1313081F0AD
S11303E05AB3BC0102C0660F771F2A95E2F79B013E
S11303F0362F309535233ABB3BB3232B2BBB2EC072
S113040057B3BC0102C0660F771F2A95E2F79B0120
S1130410362F3095352337BB38B3232B28BB1EC06A
S113042054B3BC0102C0660F771F2A95E2F79B0103
S1130430362F3095352334BB35B3232BBACF51B384
S1130440BC0102C0660F771F2A95E2F79B01362F85
S11304503095352331BB32B3232B22BB4F5F40325F
S113046009F028CF0895982F9770869586958695DC
S11304706130C1F5813091F028F08230D9F08330B9
S113048029F108954BB321E030E0B90102C0660FB1
S1130490771F9A95E2F7CB01842B38C048B321E04B
S11304A030E0B90102C0660F771F9A95E2F7CB01DD
S11304B0842B3AC045B321E030E0B90102C0660F95
S11304C0771F9A95E2F7CB01842B3CC042B321E01D
S11304D030E0B90102C0660F771F9A95E2F7CB01AD
S11304E0842B3EC08130A1F028F08230F9F08330B3
S11304F059F108954BB321E030E0B90102C0660F11
S1130500771F9A95E2F7CB01809584238BBB0895DE
S113051048B321E030E0B90102C0660F771F9A9515
S1130520E2F7CB018095842388BB089545B321E08D
S113053030E0B90102C0660F771F9A95E2F7CB014C
S11305408095842385BB089542B321E030E0B9014E
S113055002C0660F771F9A95E2F7CB01809584233A
S113056082BB0895282F27708695869586958130BD
S113057081F028F08230B9F08330F9F008953BB36C
S113058081E090E001C0880F2A95EAF783278BBBAE
S1130590089538B381E090E001C0880F2A95EAF706
S11305A0832788BB089535B381E090E001C0880FAC
S11305B02A95EAF7832785BB089532B381E090E05A
S11305C001C0880F2A95EAF7832782BB08956C98A7
S11305D06E9A08958FB9779BFECF8FB108958130BD
S11305E059F038F0823071F0833091F483B780642D
S11305F00BC083B78F7B02C083B7806483BF83B78C
S1130600877F05C083B78F7B83BF83B7886083BF31
S113061083B7887F83BF83B7682B63BF0895813016
S113062049F028F0823061F0833069F0089583B78F
S11306308F7E02C083B7806183BF83B78F7D08C07C
S113064083B78F7E02C083B7806183BF83B7806224
S113065083BF08958230D9F050F4882379F0813033
S113066071F58FB58E7F8FBD8FB58D7F21C083309F
S1130670D1F0843021F58FB5816017C08FB58E7F9E
S11306808FBD8FB58D7F8FBD8EB5877F08C08FB529
S11306908E7F8FBD8FB58D7F8FBD8EB588608EBDEB
S11306A08EB58F7E0BC08FB58E7F8FBD8FB5826068
S11306B08FBD8EB588608EBD8EB580618EBD8EB5C2
S11306C0887F8EBD8EB5682B6EBD0895813049F04C
S11306D028F0823061F0833069F008958FB58F7E01
S11306E002C08FB580618FBD8FB58F7D08C08FB577
S11306F08F7E02C08FB580618FBD8FB580628FBD44
S113070008951F920F920FB60F9211242F933F93C7
S11307104F935F936F937F938F939F93AF93BF9305
S1130720EF93FF93E0918C00F0918D00309709F0E6
S11307300995FF91EF91BF91AF919F918F917F9117
S11307406F915F914F913F912F910F900FBE0F903A
S11307501F9018951F920F920FB60F9211242F938A
S11307603F934F935F936F937F938F939F93AF9335
S1130770BF93EF93FF93E0918A00F0918B00309741
S113078009F00995FF91EF91BF91AF919F918F91DE
S11307907F916F915F914F913F912F910F900FBE79
S11307A00F901F9018951F920F920FB60F9211245D
S11307B02F933F934F935F936F937F938F939F9365
S11307C0AF93BF93EF93FF93E0918800F09189007A
S11307D0309709F00995FF91EF91BF91AF919F91E7
S11307E08F917F916F915F914F913F912F910F90D6
S11307F00FBE0F901F9018951F920F920FB60F9275
S113080011242F933F934F935F936F937F938F9311
S11308109F93AF93BF93EF93FF93E0918600F09182
S11308208700309709F00995FF91EF91BF91AF913F
S11308309F918F917F916F915F914F913F912F91F4
S11308400F900FBE0F901F9018951F920F920FB626
S11308500F9211244F935F936F937F938F939F9382
S1130860AF93BF9386E082BF809182009091830012
S1130870A0918400B09185000196A11DB11D8093C3
S1130880820090938300A0938400B09385004091EC
S11308908E0050918F0060919000709191008417A8
S11308A09507A607B70751F41092600010928200D2
S11308B0109283001092840010928500BF91AF9132
S11308C09F918F917F916F915F914F910F900FBE88
S11308D00F901F90189562E083E00E94EF0282E07F
S11308E00C940F038536910568F4982F80E064E634
S11308F070E00E9483046230710518F061506CBF8F
S113090008951CBE0895AA1BBB1B51E107C0AA1F72
S1130910BB1FA617B70710F0A61BB70B881F991F9C
S11309205A95A9F780959095BC01CD010895A1E24F
S11309301A2EAA1BBB1BFD010DC0AA1FBB1FEE1F55
S1130940FF1FA217B307E407F50720F0A21BB30BA0
S1130950E40BF50B661F771F881F991F1A9469F71C
S113096060957095809590959B01AC01BD01CF0178
S11309700895A29FB001B39FC001A39F700D811D74
S11309801124911DB29F700D811D1124911D089594
S1070990F894FFCF05
S1130994010100000000000000000000000201004A
S11309A40100000000000000000200010000020237
S10509B402003B
S9030000FC
