S01200004341525F4D41535445522E7372656311
S11300000C942A000C9447000C9447000C9447006D
S11300100C9447000C9447000C9447000C94470040
S11300200C9447000C9447000C9447000C94470030
S11300300C9447000C94FF040C9447000C9428057E
S11300400C9447000C9447000C9447000C94470010
S11300500C94470011241FBECFE5D8E0DEBFCDBF0E
S113006011E0A0E6B0E0E8E2FBE002C005900D92EA
S1130070AC31B107D9F721E0ACE1B1E001C01D9288
S1130080A132B207E1F70E94C9020C9492050C94C4
S11300900000CF93C82F60E083E00E9432046C2FED
S11300A0661F6627661F8BE00E943204C6FB662724
S11300B060F98AE00E943204C5FB662760F989E092
S11300C00E943204C4FB662760F988E00E9432046F
S11300D061E082E00E9432048FEC97E00197F1F72F
S11300E000C0000060E082E00E9432048FEC97E0E0
S11300F00197F1F700C00000C3FB662760F98BE0AD
S11301000E943204C2FB662760F98AE00E9432042E
S1130110C1FB662760F989E00E9432046C2F61708C
S113012088E00E94320461E082E00E9432048FEC95
S113013097E00197F1F700C0000060E082E00E94C0
S113014032048FEC97E00197F1F700C00000CF91E3
S113015008952FE788E391E0215080409040E1F733
S113016000C0000082E00E94490088E20E94490029
S11301708CE00E94490081E00E9449008FEC97E0E6
S11301800197F1F700C0000086E00C944900CF937A
S1130190C82F61E083E00E9432046C2F661F66273B
S11301A0661F8BE00E943204C6FB662760F98AE072
S11301B00E943204C5FB662760F989E00E9432047C
S11301C0C4FB662760F988E00E94320461E082E0A3
S11301D00E9432048FEC97E00197F1F700C0000011
S11301E060E082E00E9432048FEC97E00197F1F71F
S11301F000C00000C3FB662760F98BE00E94320454
S1130200C2FB662760F98AE00E943204C1FB6627BC
S113021060F989E00E9432046C2F617088E00E94CA
S1130220320461E082E00E9432048FEC97E001978F
S1130230F1F700C0000060E082E00E9432048FEC1D
S113024097E00197F1F700C00000CF910895982F2F
S1130250862F911102C080580BC0913011F4805444
S113026007C0923011F48C5603C0933019F48C52A9
S11302700C94490008950C94C7000F931F93CF93D7
S11302808C01C0E0F801EC0FF11D8081882321F07E
S11302900E94C700CF5FF6CFCF911F910F910895B1
S11302A081E00E9449008FEC97E00197F1F700C0CC
S11302B0000008954F925F926F927F92AF92BF9227
S11302C0CF92DF92EF92FF921F93CF93DF93CDB73C
S11302D0DEB764970FB6F894DEBF0FBECDBF6B01D7
S11302E07C016115710581059105C1F40E945001DD
S11302F080E364960FB6F894DEBF0FBECDBFDF91E6
S1130300CF911F91FF90EF90DF90CF90BF90AF906F
S11303107F906F905F904F900C94C70097FF0BC035
S11303208DE20E94C700F094E094D094C094C11C64
S1130330D11CE11CF11C10E09AE0492E512C612CD7
S1130340712CAA24A394B12CAC0EBD1EA10EB11C19
S1130350C701B601A30192010E945105605DF50138
S1130360608381E0810F69017A01C114D104E10441
S1130370F10411F0182FE5CFF12EF7FC0DC0E1E0E8
S1130380F0E0EC0FFD1FEF0DF11DF7FCFA958081F5
S11303900E94C700FA94F1CF64960FB6F894DEBFBA
S11303A00FBECDBFDF91CF911F91FF90EF90DF90F3
S11303B0CF90BF90AF907F906F905F904F900895D3
S11303C08A3731F48BEC0E9449008AE690E0DAC067
S11303D0883731F48BEC0E94490084E790E0D2C066
S11303E0813631F48BEC0E9449008EE790E0CAC05C
S11303F0833731F48BEC0E94490088E890E0C2C056
S1130400813769F48FE90E94490082E990E00E94F3
S11304103D018FE90E94490088E990E0B3C0873725
S113042069F48FE90E94490082E990E00E943D014D
S11304308FE90E9449008AE990E0A4C0813369F4FD
S11304408FE90E94490082E990E00E943D018FE912
S11304500E9449008DE990E095C0823369F48FE9E8
S11304600E94490082E990E00E943D018FE90E94C8
S1130470490081EA90E086C0833369F48FE90E94E1
S1130480490082E990E00E943D018FE90E94490001
S113049085EA90E077C0843369F48FE90E944900CB
S11304A082E990E00E943D018FE90E94490089EAB7
S11304B090E068C0853369F48FE90E94490082E9BD
S11304C090E00E943D018FE90E9449008DEA90E08E
S11304D059C0863369F48FE90E94490082E990E0AB
S11304E00E943D018FE90E94490081EB90E04AC0DF
S11304F0873369F48FE90E94490082E990E00E9401
S11305003D018FE90E94490085EB90E03BC08833B0
S113051069F48FE90E94490082E990E00E943D015C
S11305208FE90E94490089EB90E02CC0893369F47B
S11305308FE90E94490082E990E00E943D018FE921
S11305400E9449008DEB90E01DC0823769F48FE969
S11305500E94490082E990E00E943D018FE90E94D7
S1130560490081EC90E00EC08C3671F48FE90E9452
S1130570490082E990E00E943D018FE90E94490010
S113058087EC90E00C943D01089581E080931C0178
S113059008950E9454030E94A9000E94F0040E943E
S11305A0E6040E94F804789485EC92E00E94FA0430
S11305B060E080E00E9427018CEC90E00E943D0105
S11305C060E081E00E9427018AED90E00E943D01F5
S11305D060E082E00E94270184EE90E00E943D01E9
S11305E06BE082E00E9427018AE990E00E943D01CD
S11305F060E083E00E9427018FEE90E00E943D01BD
S113060080911C018130E1F70E94F604C82F8D7F90
S1130610883711F0C336D1F460E080E10E943204DF
S11306208C2F0E94EB04D82F6FE080E00E942701FA
S11306308C2F0E943B016EE083E00E9427016D2F06
S113064070E080E090E00E945A011CC0C13661F065
S11306508FE88C0F833040F0C73731F0CC3621F06F
S11306608FEC8C0F893060F660E081E10E943204E7
S11306708C2F0E94EB046FE080E00E9427018C2FF6
S11306800E943B0181E00E94B1048C2F0E94E00192
S113069010921C012FE788E391E0215080409040A4
S11306A0E1F700C00000ACCFECEFF0E040E081E007
S11306B090E05191242F2770342F36953695369536
S11306C0513009F443C020F0523009F482C0C5C04F
S11306D0323001F1333061F1313071F05AB3BC0181
S11306E002C0660F771F2A95E2F79B01352F322B44
S11306F03ABB3BB320953DC057B3BC0102C0660F63
S1130700771F2A95E2F79B01352F322B37BB38B37D
S113071020953EC054B3BC0102C0660F771F2A95D2
S1130720E2F79B01352F322B34BB35B320953FC004
S113073051B3BC0102C0660F771F2A95E2F79B01F3
S1130740352F322B31BB32B3209541C0323011F1F9
S1130750333081F1313079F05AB3BC0102C0660FF5
S1130760771F2A95E2F79B012095352F32233ABB58
S11307703BB3232342C057B3BC0102C0660F771FAB
S11307802A95E2F79B012095352F322337BB38B3E6
S1130790232343C054B3BC0102C0660F771F2A95BC
S11307A0E2F79B012095352F322334BB35B3232345
S11307B025BB53C051B3BC0102C0660F771F2A95F5
S11307C0E2F79B012095352F322331BB32B323232B
S11307D043C0323021F1333089F1313081F05AB3E2
S11307E0BC0102C0660F771F2A95E2F79B01362FE2
S11307F0309535233ABB3BB3232B2BBB2EC057B3C9
S1130800BC0102C0660F771F2A95E2F79B01362FC1
S11308103095352337BB38B3232B28BB1EC054B3C4
S1130820BC0102C0660F771F2A95E2F79B01362FA1
S11308303095352334BB35B3232BBACF51B3BC0128
S113084002C0660F771F2A95E2F79B01362F309579
S1130850352331BB32B3232B22BB4F5F403209F027
S113086028CF0895982F9770869586958695613040
S1130870C1F5813091F028F08230D9F0833029F12C
S113088008954BB321E030E0B90102C0660F771F31
S11308909A95E2F7CB01842B38C048B321E030E0CD
S11308A0B90102C0660F771F9A95E2F7CB01842B3A
S11308B03AC045B321E030E0B90102C0660F771FAA
S11308C09A95E2F7CB01842B3CC042B321E030E09F
S11308D0B90102C0660F771F9A95E2F7CB01842B0A
S11308E03EC08130A1F028F08230F9F0833059F114
S11308F008954BB321E030E0B90102C0660F771FC1
S11309009A95E2F7CB01809584238BBB089548B375
S113091021E030E0B90102C0660F771F9A95E2F733
S1130920CB018095842388BB089545B321E030E052
S1130930B90102C0660F771F9A95E2F7CB01809543
S1130940842385BB089542B321E030E0B90102C09D
S1130950660F771F9A95E2F7CB018095842382BBBB
S11309600895282F2770869586958695813081F085
S113097028F08230B9F08330F9F008953BB381E078
S113098090E001C0880F2A95EAF783278BBB08956E
S113099038B381E090E001C0880F2A95EAF78327F5
S11309A088BB089535B381E090E001C0880F2A9593
S11309B0EAF7832785BB089532B381E090E001C054
S11309C0880F2A95EAF7832782BB08956C9A689862
S11309D0699A6E9A08958FB9779BFECF8FB1089567
S11309E083E389B95998549A539A08958CB1089518
S11309F0579A08959093200180931F0108951F92A0
S1130A000F920FB60F9211242F933F934F935F933E
S1130A106F937F938F939F93AF93BF93EF93FF93C2
S1130A20E0911F01F0912001309709F00995FF91A1
S1130A30EF91BF91AF919F918F917F916F915F9152
S1130A404F913F912F910F900FBE0F901F901895CB
S1130A501F920F920FB60F9211242F933F934F932F
S1130A605F936F937F938F939F93AF93BF93EF9312
S1130A70FF93E0911D01F0911E01309709F0099553
S1130A80FF91EF91BF91AF919F918F917F916F9162
S1130A905F914F913F912F910F900FBE0F901F9038
S1130AA01895052E97FB1EF400940E94680557FDC7
S1130AB007D00E94700507FC03D04EF40C9468051F
S1130AC050954095309521953F4F4F4F5F4F089576
S1130AD090958095709561957F4F8F4F9F4F0895A6
S1130AE0A1E21A2EAA1BBB1BFD010DC0AA1FBB1F2E
S1130AF0EE1FFF1FA217B307E407F50720F0A21BA0
S1130B00B30BE40BF50B661F771F881F991F1A940C
S1130B1069F760957095809590959B01AC01BD0136
S10B0B20CF010895F894FFCF02
S1130B284F56455220464C4F570044312041637478
S1130B3869766500443220416374697665004433FC
S1130B48204163746976650044342041637469768E
S1130B586500202020202000313030250031302548
S1130B680032302500333025003430250035302557
S1130B780036302500373025003830250039302537
S1130B88005269676874004C656674005072657336
S1130B9873656420436861723A0043617220446F4C
S1130BA86F723A00434152204D6F746F723A004598
S1130BB86E67696E652054656D703A000000000028
S1130BC80000000000000000010002000000000016
S10F0BD800000000020001000002020204
S9030000FC
